:100000000C9424010C944C010C944C010C944C0164
:100010000C944C010C944C010C944C010C944C012C
:100020000C944C010C944C010C944C010C944C011C
:100030000C944C010C944C010C944C010C944C010C
:100040000C949E120C944C010C94D3150C94211614
:100050000C944C010C944C010C944C010C944C01EC
:100060000C9463070C944C01010000000000000098
:10007000000000000100000001000000FF0000007F
:100080007F00000001000000FFFFFFFFFFFFFFFFF8
:10009000FFFFFFFFFFFFFFFFFFFFFFFFFFFFFF0768
:1000A00080FFFFFFFFFFFFFFFFFFFFFFFFFFFF07D7
:1000B0008069FFFFFFFFFFFF0A000000FE00FA005B
:1000C0000000FA000000FA000000C8000000C800AC
:1000D0000000C800FE00FA000000FA000000FA006C
:1000E0000000C8000000C8000000C800FE00FA00C0
:1000F0000000FA000000FA000000C8000000C8007C
:100100000000C800FE00FA000000FA000000FA003B
:100110000000C8000000C8000000C800FE00FA008F
:100120000000FA000000FA000000C8000000C8004B
:100130000000C800010000008E00000070000000F8
:1001400000000000010000000000000000000000AE
:100150000000000002000000FE00D0070000D007F1
:100160000000D007000000000000000000000000B8
:10017000020000000000D007FE00D0070000D007FA
:10018000000000000000000000000000020000006D
:100190000000D0070000D007FE00D00700000000DC
:1001A00000000000000000000F10110A0B0C0D04ED
:1001B0000708141504000000FE00FA000000FA0011
:1001C0000000FA007F00F4017F00F4010000F40158
:1001D0005500E8035500E8035500E803000000005F
:1001E00000000000000000000000000024002700C4
:1001F0002A0000000000250028002B00000000005D
:100200002300260029000404040404040404020258
:100210000202020203030303030301020408102085
:100220004080010204081020010204081020000090
:1002300000070002010000030406000000000000A7
:100240000000030649098D1711241FBECFEFD8E027
:10025000DEBFCDBF11E0A0E0B1E0E2E6F2E302C014
:1002600005900D92A435B107D9F714E0A4E5B1E0EB
:1002700001C01D92AE3DB107E1F712E0C8E4D2E043
:1002800004C02297FE010E94F418C234D107C9F7B6
:100290000E94E3170C942F190C9400000F931F93E6
:1002A000CF93DF93689F8001699F100D789F100D99
:1002B0001124C8010E949D14EC01009729F060E010
:1002C00070E0A8010E94DD01CE01DF91CF911F9166
:1002D0000F910895A0E0B0E0E0E7F1E00C94001980
:1002E000EC01A880B980CA80DB80A114B104C104EC
:1002F000D10441F484E2A82E89EDB82E8BE5C82EF6
:1003000087E0D82EC601B5012DE133EF41E050E082
:100310000E94D71827EA31E440E050E00E94961886
:100320007B018C01C601B5012DE133EF41E050E0C6
:100330000E94D718CA01B9012CEE34EF4FEF5FEFDE
:100340000E9496186E0D7F1D801F911F97FF04C09D
:100350006150704080409048688379838A839B8392
:100360009B01AC015F77B901CA01CDB7DEB7EAE006
:100370000C941C190E946A01089580E091E00E948B
:100380006A01089560930001709301018093020156
:10039000909303010895FB01DC0102C005900D92CA
:1003A00041505040D8F70895FB01DC0102C0019094
:1003B0000D9241505040D8F70895DC0101C06D9373
:1003C00041505040E0F70895FB01DC01415050409E
:1003D00030F08D910190801919F40020B9F7881B35
:1003E000990B0895CF92DF92EF92FF920F931F9394
:1003F000CF93DF936B01042F0F5F8BE092E064E2F9
:1004000070E00E94C9058BE092E060E00E944B061C
:100410008BE092E060E00E944B068BE092E06FEF91
:100420000E944B068BE092E0602F0E944B0610E08A
:1004300066277727601B710B8BE092E00E944B06CA
:100440008BE092E064ED0E944B0683EDE82EFF24E2
:10045000E80121970DC08601080F191F8BE092E07B
:10046000F80160810E944B06F8018081E80EF39448
:100470008F2D90E08C179D0774F36E2D70E06095C2
:1004800070958BE092E00E944B068BE092E060E07A
:100490000E944B068BE092E00E948E0661E070E0C5
:1004A00080E090E00E94F412DF91CF911F910F91B4
:1004B000FF90EF90DF90CF900895FF920F931F93DE
:1004C000CF93DF93162F072FF42E4E5F8BE092E031
:1004D00064E220E00E9492068BE092E00E94DC053C
:1004E00080FD02C080E015C0812F902F9C01E901A2
:1004F00010E006C08BE092E00E94DC0589931F5F4C
:100500001F15C0F36AE070E080E090E00E94F412F2
:1005100081E0DF91CF911F910F91FF900895EF92AD
:10052000FF920F931F93DF93CF9300D000D000D0A2
:10053000CDB7DEB78C017E010894E11CF11CC80127
:10054000B70146E00E945D028823C9F3C70164E059
:1005500071E046E050E00E94E4019C0180E0232B22
:1005600009F481E026960FB6F894DEBF0FBECDBF2A
:10057000CF91DF911F910F91FF90EF9008950F930E
:100580001F938C010E94F201C8010E948F02811109
:1005900081E01F910F91089520E42093540121E000
:1005A0002093550120EB209356016093570164E599
:1005B00071E044E028EE33E00E94BF02811181E047
:1005C000089520E42093540131E03093550121EC4B
:1005D00020935601609357013093580110925901AE
:1005E00010925A0110925B0164E571E048E028EE38
:1005F00033E00E94BF02811181E00895CF93DF9321
:10060000EC018AE48093540181E0809355011092BB
:100610005601CE0164E571E043E028EE33E00E942C
:10062000BF02882361F1CE0164E571E040E20E94DF
:100630005D028823C1F380915401882301F58091E4
:1006400055018823E1F4809156018F3FC1F48091D8
:100650005701819590915801981789F4809159011B
:10066000853D69F480915A018B3449F480915B0196
:10067000813029F480915C01888B81E001C080E0A9
:10068000DF91CF910895CF92DF92EF92FF920F9377
:100690001F93CF93DF93EC016A01790198018AE4FB
:1006A0008093540181E08093550160935601CE01FF
:1006B00064E571E043E00E94BF02882371F16AE0C3
:1006C00070E080E090E00E94F412CE0164E571E0F9
:1006D00044E10E945D028823C1F36AE070E080E09B
:1006E00090E00E94F41280915B018130B1F480911E
:1006F0006001F701808390E00AC0E92FF0E0D601A5
:10070000AE0FBF1FEC5AFE4F85858C939F5F809183
:100710006001981790F381E001C080E0DF91CF91F4
:100720001F910F91FF90EF90DF90CF90089522E3FB
:100730002093540125E0209355012FEF209356017B
:1007400021E0209357016093580164E571E045E092
:1007500028EE33E00E94BF02811181E00895CF931B
:10076000DF93EC0194E19093540181E08093550173
:100770009093560110925701CE0164E571E044E078
:1007800028EE33E00E94BF02882311F490E00EC0EF
:10079000CE0164E571E048E00E945D028823C1F368
:1007A00090E080915A01853109F491E0892FDF9121
:1007B000CF910895CF93DF93EC0180E480935401AF
:1007C00081E08093550180EA809356016093570140
:1007D000A8E5B1E0FA0180E101900D928150E1F7C6
:1007E000CE0164E571E044E128EE33E00E94BF02EF
:1007F000811181E0DF91CF910895DF93CF93CDB741
:10080000DEB760970FB6F894DEBF0FBECDBFFE0116
:10081000319620E1DF011D922A95E9F72FEF2D8314
:100820002E832F8328876D87262F20952E876F870D
:10083000288BAF010E94DA03811181E060960FB628
:10084000F894DEBF0FBECDBFCF91DF9108950F9317
:100850001F93CF93DF93EC01142F052F80E4809337
:10086000540181E08093550180E3809356016093A9
:100870005701CE0164E571E044E028EE33E00E94C8
:10088000BF028823C9F0CE0164E571E04AE10E940D
:100890005D028823C1F380915B01882369F4812F75
:1008A000902F9C01D901ECE5F1E080E101900D92DF
:1008B0008150E1F781E001C080E0DF91CF911F918D
:1008C0000F910895BF92CF92DF92EF92FF920F9314
:1008D0001F93CF93DF93EC01F42EB02E8C01065FB3
:1008E0001F4FD801F60186E001900D928150E1F78B
:1008F0009E012E5F3F4FC9014F2D50E00E94D40151
:10090000F98680E48093540181E080935501EE20C4
:1009100011F480E601C081E680935601B092570140
:10092000A8E5B1E0F80186E001900D928150E1F771
:1009300090E00BC0E92FF0E0DE01AE0FBF1F129672
:100940008C91EC5AFE4F82879F5F4985941790F3F4
:10095000465FCE0164E571E028EE33E00E94BF02FD
:10096000882311F490E00EC0CE0164E571E04CE004
:100970000E945D028823C1F790E080915B0188238B
:1009800009F491E0892FDF91CF911F910F91FF9092
:10099000EF90DF90CF90BF9008950F931F938C013D
:1009A0008BE092E00E949F06F801818160E00E9446
:1009B0000A14F801818161E00E940A1460E971E083
:1009C00080E090E00E94F412F801818160E00E94D2
:1009D0000A146AE070E080E090E00E94F4121F9137
:1009E0000F910895FC01862F6183108260E00E94C0
:1009F0000A140895F999FECF72BD61BDF89A80B5C9
:100A00000895F999FECF1FBA72BD61BD40BD0FB602
:100A1000F894FA9AF99A0FBE08956093770170934B
:100A200078018093790190937A0120910A013091A5
:100A30000B0140910C0150910D01260F371F481FEB
:100A4000591F20937B0130937C0140937D0150938B
:100A50007E0182E090E09093800180937F010E946C
:100A6000E6126093810170938201809383019093D9
:100A700084010895EF92FF920F931F931CC02F5F84
:100A80003F4F4F4F5F4F2093770130937801409352
:100A9000790150937A0188EE93E0A0E0B0E0E80E8F
:100AA000F91E0A1F1B1FE0928101F0928201009340
:100AB0008301109384010E94E612E0908101F0907E
:100AC000820100918301109184016E197F09800BCE
:100AD000910B2091770130917801409179015091EB
:100AE0007A01685E73408040904048F680917B01B7
:100AF00090917C01A0917D01B0917E01281739076A
:100B00004A075B07C8F1E0917501F09176013097D3
:100B100099F10995611571058105910519F00E94FA
:100B20000D052AC080910A0190910B01A0910C0142
:100B3000B0910D01209177013091780140917901B8
:100B400050917A01820F931FA41FB51F80937B01E0
:100B500090937C01A0937D01B0937E0120E030E072
:100B600080917F0190918001892B11F021E030E08C
:100B70003093800120937F0160917701709178011B
:100B80008091790190917A011F910F91FF90EF90E0
:100B9000089581E080930A026093C70110920802D1
:100BA0001092090208952091C60130E08091C5019C
:100BB000281B3109C90108954091C5018091C601E2
:100BC000481718F02FEF3FEF0AC0E42FF0E0EB5783
:100BD000FE4F8081282F30E04F5F4093C501C9014F
:100BE0000895E091C5018091C601E81718F0EFEF74
:100BF000FFEF06C0F0E0EB57FE4F8081E82FF0E0FA
:100C0000CF010895089510920E0210920D0288EE01
:100C100093E0A0E0B0E080930F0290931002A093C5
:100C20001102B093120282E391E090930C02809340
:100C30000B020895CF92DF92EF92FF920F931F93D2
:100C4000CF93DF937C016B018A0180910A02882394
:100C5000A1F0C0E0D0E00DC0D701ED91FC91D6012C
:100C6000AC0FBD1F0190F081E02DC7016C9109957B
:100C70002196C017D10780F304C0CB01642F0E94D6
:100C80004807C801DF91CF911F910F91FF90EF901E
:100C9000DF90CF900895DF93CF930F92CDB7DEB75B
:100CA000FC01698380910A028823C9F080910902BE
:100CB000803438F081E090E09383828320E030E05C
:100CC00015C080910802E82FF0E0E853FE4F9981AB
:100CD00090838F5F809308028093090205C0CE0144
:100CE000019661E00E94480721E030E0C9010F90C1
:100CF000CF91DF9108950F93062F8091C70168EC83
:100D000071E04091090221E00E94F306109208026E
:100D10001092090210920A020F91089561E00E9458
:100D20007B060895413408F040E4862F65E871E0C1
:100D30000E94AA061092C5018093C60108951092E0
:100D4000C5011092C60110920802109209020E9479
:100D5000F4080895382F413410F040E042C08091EB
:100D600017028823E1F791E090931702209319026C
:100D70008FEF8093E40210925F0241504093600233
:100D80004F5F9093180280911802330F832B80934A
:100D9000180280911A02813041F410921A02809157
:100DA00018028093BB0085EC01C085EE8093BC00E7
:100DB000809117028130E1F380915F02841710F473
:100DC00040915F0220E030E00AC0FB01E20FF31F18
:100DD000D901A15EBD4F8C9180832F5F3F4F2417B7
:100DE000A0F3842F08950F931F93582F122F41348F
:100DF00010F081E04AC0809117028823E1F782E079
:100E000080931702009319028FEF8093E4021092EF
:100E10005F0240936002AFE1B2E0FB0102C081914A
:100E20008D938E2F861B8417D0F310921802809119
:100E30001802550F852B8093180280911A02813079
:100E400041F410921A02809118028093BB0085EC45
:100E500001C085EE8093BC00112321F08091170220
:100E60008230E1F38091E4028F3F11F480E00DC005
:100E70008091E402803211F482E007C08091E402A4
:100E8000803311F084E001C083E01F910F91089539
:100E9000482F613410F081E008958091170284306A
:100EA00011F082E008956093A202A1E6B2E0842FDF
:100EB0009C01F90102C081918D938E2F841B8617AE
:100EC000D0F380E008951F920F920FB60F92112475
:100ED0002F933F934F935F936F937F938F939F9342
:100EE000AF93BF93EF93FF938091B90090E0887F19
:100EF00090708036910509F4F2C081369105CCF5E9
:100F00008832910509F47BC089329105B4F48031AF
:100F1000910509F46FC0813191053CF4009709F403
:100F200047C1089709F04FC165C08831910509F4A0
:100F300066C0809709F047C182C08034910509F4EA
:100F4000A4C08134910544F48033910509F482C032
:100F5000C89709F038C189C08035910509F489C066
:100F60008835910509F496C08834910509F02BC1A4
:100F7000AEC08839910509F413C189399105ECF4A3
:100F80008837910509F4ABC0893791054CF4883650
:100F9000910509F4A4C08037910509F014C19FC0E0
:100FA0008838910509F4FCC08039910509F49DC089
:100FB0008038910509F007C198C0803B910509F47C
:100FC000C6C0813B91054CF4803A910509F49FC05D
:100FD000883A910509F0F7C0BAC0803C910509F440
:100FE000E3C0883C910509F4DFC0883B910509F016
:100FF000EAC0C2C0809118028093BB00CFC090911C
:101000005F0280916002981768F490915F02E92F67
:10101000F0E0E15EFD4F80818093BB009F5F909385
:101020005F02BCC080911902882309F44BC085ED92
:101030008093BC008091BC0084FDFCCFC2C080E2E4
:101040008093E40285ED8093BC008091BC0084FD18
:10105000FCCFB7C080E38093E40285ED8093BC00B1
:101060008091BC0084FDFCCFACC088E38093E40297
:101070009BC080915F029091BB00E82FF0E0E15EA1
:10108000FD4F90838F5F80935F0290915F0280910C
:10109000600282C080915F029091BB00E82FF0E077
:1010A000E15EFD4F90838F5F80935F028091190214
:1010B000882341F085ED8093BC008091BC0084FDC5
:1010C000FCCF7FC081E080931A0284EA6EC085ED78
:1010D0008093BC008091BC0084FDFCCF72C083E093
:1010E000809317021092E30259C08091E30280348A
:1010F00008F056C08091E3029091BB00E82FF0E029
:10110000ED55FD4F90838F5F8093E30247C0809140
:10111000E302803430F4E091E302F0E0ED55FD4F5E
:10112000108285ED8093BC008091BC0084FDFCCFD3
:10113000109217026091E302E0911D02F0911E02ED
:1011400083EA92E070E009951092E3022DC084E0FA
:10115000809317021092A1021092A202E0911B024A
:10116000F0911C0209958091A202882329F481E064
:101170008093A202109261029091A102E92FF0E007
:10118000EF59FD4F80818093BB009F5F9093A10238
:101190009091A1028091A202981710F485EC01C0F1
:1011A00085E88093BC000FC085EC8093BC0009C02B
:1011B0001092E40285ED8093BC008091BC0084FD18
:1011C000FCCF10921702FF91EF91BF91AF919F91C9
:1011D0008F917F916F915F914F913F912F910F90E0
:1011E0000FBE0F901F9018951092170281E0809308
:1011F000190210921A0282E161E00E94491483E10F
:1012000061E00E944914E9EBF0E080818E7F8083E9
:1012100080818D7F80838CE08093B80085E480930B
:10122000BC000895DF93CF93CDB7DEB727970FB6F5
:10123000F894DEBF0FBECDBF1092C9031092C70352
:101240001092C603882349F0DE011196EAECF3E020
:1012500097E001900D929150E1F7EAECF3E001C0C4
:10126000119293E0E53FF907D9F7882349F0DF01B0
:101270009B97FE01319687E001900D928150E1F736
:1012800027960FB6F894DEBF0FBECDBFCF91DF918A
:1012900008958DEE92E06AE00E94F2040895CF93E3
:1012A000DF9384E791E060E070E00E94FA048B3AFB
:1012B000F1F08EE00E9488130E948E18C1E0D0E009
:1012C00060E071E080E090E00E946C18462F84E7B7
:1012D00091E0BE010E9401052196C930D10581F738
:1012E00084E791E060E070E04BEA0E940105C1E014
:1012F000D0E084E791E0BE010E94FA04FE01EC51C7
:10130000FD4F80832196C930D10599F7DF91CF91A8
:1013100008950E944F09AFE1B4E0EEE3F1E086E00A
:1013200001900D928150E1F710921E0482E08093AB
:10133000250408956AE070E080E090E00E94F412D5
:101340000C940000089520911104309112048091B2
:101350000F0490911004281739070CF096C1809162
:101360000D0490910E0402970CF05CC10E94E612ED
:101370006093FD037093FE038093FF03909300043A
:10138000209101043091020440910304509104041F
:10139000621773078407950708F45DC080912301E5
:1013A000909124012FEF8E3F92070CF44BC09C01CB
:1013B0002D5F3F4F30932401209323018091F5034B
:1013C0009091F603821793073CF48DEF9FEF909373
:1013D0002401809323013FC0220F331F220F331FAC
:1013E000E091C203F091C303E20FF31F60817181AA
:1013F00086E00E94AA138091230190912401880F16
:10140000991F880F991FE091C203F091C303E80F61
:10141000F91F82819381A0E0B0E02091FD0330911B
:10142000FE034091FF0350910004820F931FA41FFD
:10143000B51F8093010490930204A0930304B0931A
:10144000040409C080910D0490910E0401969093BC
:101450000E0480930D042091FD033091FE03409112
:10146000FF03509100048091050490910604A0911F
:101470000704B0910804281739074A075B0708F4E6
:101480005DC080912501909126012FEF8E3F92073C
:101490000CF44BC09C012D5F3F4F309326012093ED
:1014A00025018091F7039091F803821793073CF48C
:1014B0008DEF9FEF90932601809325013FC0220F6F
:1014C000331F220F331FE091C203F091C303E20FD9
:1014D000F31F6081718185E00E94AA13809125012C
:1014E00090912601880F991F880F991FE091C203E0
:1014F000F091C303E80FF91F82819381A0E0B0E06F
:101500002091FD033091FE034091FF0350910004B0
:10151000820F931FA41FB51F8093050490930604A8
:10152000A0930704B093080409C080910D04909122
:101530000E04019690930E0480930D042091FD03F8
:101540003091FE034091FF03509100048091090403
:1015500090910A04A0910B04B0910C04281739074C
:101560004A075B0708F49DC08091FB039091FC0340
:101570002FEF8E3F92070CF44BC09C012D5F3F4F25
:101580003093FC032093FB038091F9039091FA03BD
:10159000821793073CF48DEF9FEF9093FC038093A9
:1015A000FB030895220F331F220F331FE091C20364
:1015B000F091C303E20FF31F6081718183E00E9409
:1015C000AA138091FB039091FC03880F991F880F49
:1015D000991FE091C203F091C303E80FF91F8281C4
:1015E0009381A0E0B0E02091FD033091FE03409193
:1015F000FF0350910004820F931FA41FB51F809317
:10160000090490930A04A0930B04B0930C0408956A
:1016100080910D0490910E04019690930E04809396
:101620000D0408952F5F3F4F30931204209311044F
:101630008EEF9FEF90932401809323018FEF9FEF14
:1016400090932601809325011092FC031092FB03D6
:1016500010920104109202041092030410920404E8
:1016600010920504109206041092070410920804C8
:101670001092090410920A0410920B0410920C04A8
:1016800010920E0410920D0408951092130480918C
:10169000C2039091C3030E943A151092C3031092A3
:1016A000C2030895BF92CF92DF92EF92FF920F9301
:1016B0001F93CF93DF93D82EB92E162FF72EC42E5B
:1016C000E90180911304882319F0EE2009F471C018
:1016D000009313048091C2039091C303009711F00B
:1016E0000E943A15812F9F2D0E949D148093C20362
:1016F0009093C303CC2039F06D2D7B2D412F5F2DAE
:101700000E94CB0106C06D2D7B2D412F5F2D0E94C5
:10171000D401E091C203F091C30320813181C9015A
:10172000880F991F820F931F02979093F60380935F
:10173000F50301969093F8038093F7030196909335
:10174000FA038093F903D0931004C0930F0410920E
:101750001204109211048EEF9FEF90932401809356
:1017600023018FEF9FEF9093260180932501109224
:10177000FC031092FB0310920104109202041092D9
:1017800003041092040410920504109206041092AF
:101790000704109208041092090410920A0410928F
:1017A0000B0410920C0410920E0410920D040E946F
:1017B000A309DF91CF911F910F91FF90EF90DF90E0
:1017C000CF90BF90089502C00E94A30920911104F8
:1017D0003091120480910F0490911004281739075A
:1017E0009CF308958F929F92AF92BF92CF92DF9217
:1017F000EF92FF920F931F9310911404B090150471
:1018000000911604F0901704E0901804D090190489
:10181000C0901A0480901B040E94E61220911C04C0
:1018200030911D04621B730B9B0140E050E060E0AF
:1018300070E080E090E0922E910EA1E0921608F008
:10184000A0E0E32FEB0DF1E0E31708F0F0E0AA2EA3
:10185000AE0EA1E0AE1608F0A0E0FA2BE1E004170E
:1018600008F0E0E0BF2EB00EF1E0B01608F0F0E0B6
:10187000EF2BF1E0F51608F0F0E01E2F1F0DE1E070
:101880001F1508F0E0E0FE2BE1E0E61608F0E0E0CE
:10189000BF2FBE0DF1E0BE1508F0F0E0EF2BF1E038
:1018A000D71608F0F0E0AE2FAD0DE1E0AD1508F071
:1018B000E0E0FE2BE1E0C81608F0E0E09F2F9C0D71
:1018C00081E09C1508F080E0E82BE80D909214046C
:1018D000A0921504B092160410931704B093180444
:1018E000A093190490931A04E0931B040E94E6123B
:1018F00070931D0460931C040E943A051F910F9180
:10190000FF90EF90DF90CF90BF90AF909F908F901F
:1019100008958F929F92AF92BF92CF92DF92EF92F3
:101920000F931F93DF93CF93CDB7DEB768970FB6B2
:10193000F894DEBF0FBECDBF8DEE92E060E0AE0149
:101940004E5F5F4F9E012F5F3F4F00E010E00E940F
:101950004303882309F4C1C18981843019F04AEC1A
:1019600053E002C04DEC53E0DE01129620E030E07F
:10197000682F70E009C08D91FA01E20FF31F90818A
:10198000891731F42F5F3F4F26173707A4F3ABC1F8
:1019900088E690E060E170E041E021E030E000E0C6
:1019A000EE240E94520B80E390E00E949D145C01A3
:1019B00080E290E00E949D144C010091250410E00B
:1019C000000F111F000F111F222717FD2095322F26
:1019D0008DEE92E0BE016E5F7F4F4981E0901E0464
:1019E0005FE1C52E54E0D52E0E946204882309F4DD
:1019F000A9C06091250470E0660F771F660F771FFE
:101A00008DEE92E0A5010E942704882309F49AC074
:101A100060912504660F660F6F5FA501405F5F4F01
:101A20008DEE92E00E942704882309F48BC0609118
:101A3000250470E0660F771F660F771F6E5F7F4F7C
:101A4000A501405E5F4F8DEE92E00E94270488233F
:101A500009F478C0FE0139969F01CE014996119292
:101A6000E817F907E1F7D901E5EEF2E088E0019027
:101A70000D928150E1F70E943A058E01075F1F4FDA
:101A8000F801608771878287938760912504660FCC
:101A9000660F6F5F8DEE92E0A8010E94DA03882343
:101AA00009F450C06091250470E0660F771F660F3F
:101AB000771F6E5F7F4F8DEE92E00E94E1028823D8
:101AC00009F440C06091250470E0660F771F660F2F
:101AD000771F6E5F7F4F8DEE92E00E94CC028823CD
:101AE00089F160912504660F660F6F5F8DEE92E0BD
:101AF000A4010E942704882329F16091250470E045
:101B0000660F771F660F771F6E5F7F4FA401405FE0
:101B10005F4F8DEE92E00E942704882399F020E029
:101B200030E0A801FA01E20FF31FD401A20FB31FA6
:101B300090818C91981731F42F5F3F4F2031310500
:101B400089F710C110E0C4010E943A1580E00E949C
:101B500012091123C1F14981443019F06AEC73E094
:101B600002C06DEC73E09E012E5F3F4FCB01B901C7
:101B700050E00E94D401A1EDB3E0F50180E10190B5
:101B80000D928150E1F7A1EEB3E0F501709680E18E
:101B900001900D928150E1F7F50180A191A1A2A1E0
:101BA000B3A18093F1039093F203A093F303B09356
:101BB000F40381E08093C9030E94E6127093C70387
:101BC0006093C60386C08091260481FF82C088E7A7
:101BD00090E060E170E041E021E030E000E0EE24E0
:101BE0000E94520B8DEE92E00E94FE02882309F4BF
:101BF00070C012E0812E912C8C0E9D1E8DEE92E015
:101C0000B401498108E010E020E030E0BEE3CB2ED3
:101C1000B1E0DB2E0E9462048823C1F18DEE92E0D8
:101C200068E0A5010E942704882309F452C0F50149
:101C300020E030E040E050E0B501605F7F4F8191EF
:101C4000280F311D411D511DE617F707C1F721155A
:101C500031054105510509F49AC0C50168E970E0F4
:101C600040E150E00E94CB01D501EFE1F4E086E0D5
:101C700001900D928150E1F7D5011A96EFE1F4E061
:101C800086E001900D928150E1F71DC08DEE92E04B
:101C90000E94FE028823E9F08DEE92E0B4014981B2
:101CA00008E010E020E030E0EE24E394AEE3CA2E3A
:101CB000A1E0DA2E0E946204C50168EA70E040E10A
:101CC00050E00E94CB018DEE92E06BE0A5010E94F6
:101CD000DA03C5010E943A1506C08091C903882322
:101CE00011F40E9412098091C9038823F1F00E9427
:101CF000E6122091C6033091C703621B730B20913B
:101D00000E0130910F016217730760F081E00E94AD
:101D1000120988EB90E06CE770E041E021E030E0F0
:101D200001E00BC084E391E002C084E491E060E153
:101D300070E041E021E030E000E0EE240E94520B30
:101D400068960FB6F894DEBF0FBECDBFCF91DF917E
:101D50001F910F91EF90DF90CF90BF90AF909F9029
:101D60008F900895F50180A191A1A2A1B3A1019640
:101D7000A11DB11DF401208931894289538982173F
:101D80009307A407B50709F0DDCE11E0DCCEC5014D
:101D900068E870E040E150E00E94CB018DEE92E0F7
:101DA00068E0A5010E94DA038DEE92E06AE00E94ED
:101DB000FD03C50168E970E040E150E00E94CB01FD
:101DC000D501EFE1F4E086E001900D928150E1F75A
:101DD000D5011A96EFE1F4E086E001900D92815072
:101DE000E1F771CFAF92BF92CF92DF92FF920F9344
:101DF0001F93CF93DF93082FF92E162FC62EDD24C5
:101E000072E0A72EB12CAC0CBD1CC50161E070E0E6
:101E10000E944E01EC01FC011193CF01602F7F2D38
:101E2000412F50E00E94D4011F5FFE0130E0AE015F
:101E3000410F511D6CE80CC0208198E0822F832750
:101E4000369580FD3627915011F02695F7CF3196C3
:101E5000E417F50789F7CC0EDD1EF601318388EB18
:101E600094E0BE01A5010E94F217CE010E943A152E
:101E7000DF91CF911F910F91FF90DF90CF90BF9096
:101E8000AF900895EF92FF921F93CF93DF93182F97
:101E90000E94E6127B01C12FD0E009C00E94E61229
:101EA0006E197F09685E734010F080E008C088EB0F
:101EB00094E00E94E3168C179D0784F381E0DF9184
:101EC000CF911F91FF90EF900895DF93CF9300D0B3
:101ED0000F92CDB7DEB783E00E94420F882311F046
:101EE00081E02BC088EB94E0BE016F5F7F4F43E041
:101EF00050E00E944818298180911D01821761F4E9
:101F000090911E018A81981739F490911F018B815D
:101F1000981711F480E011C080912001821761F4BC
:101F2000909121018A81981739F4909122018B8137
:101F3000981711F482E001C083E00F900F900F908A
:101F4000CF91DF9108952F923F924F925F926F92BF
:101F50007F928F929F92AF92BF92CF92DF92EF9239
:101F6000FF920F931F93DF93CF93CDB7DEB72897E0
:101F70000FB6F894DEBF0FBECDBF8C012DB73EB7B4
:101F800038872F83462F4150FC0130E05CE80DC0BC
:101F9000208198E0832F8227369580FD3527915048
:101FA00011F02695F7CF31964150442389F7F80177
:101FB000E60FF11D31978081381709F0BCC1F80197
:101FC0009181809110019817A9F48091C903882309
:101FD00061F088EB94E06DE171E043E050E00E9435
:101FE000F2178AEC93E06BE295C188EB94E060E233
:101FF00071E07CC180911201981791F5F80162811E
:102000006230C9F0633030F4662351F0613009F07A
:102010006CC00EC0633091F0643009F066C013C02C
:102020008EEF92E064EC70E041E020E030E012C01E
:1020300084E591E005C080E791E002C08CE891E082
:102040006CE170E004C084E491E060E170E041E0A4
:1020500021E030E001E0EE24E3940E94520B0EC137
:1020600080911301981759F488EB94E06DE171E0C9
:1020700043E050E00E94F21784E194E04AC180916D
:102080001101981729F4F80182810E941209F6C003
:1020900080911C01981759F488EB94E06DE171E090
:1020A00043E050E00E94F2170E949A0944C18091D7
:1020B0001401981759F488EB94E06DE171E043E066
:1020C00050E00E94F21785EE92E023C18091150145
:1020D000882309F4C4C098012E5F3F4F3E832D83AF
:1020E000F80182818150843C48F088EB94E060E202
:1020F00071E043E050E00E94F2171EC188EB94E0CB
:102100006DE171E043E050E00E94F217F801828136
:1021100090E00E949D14382F492FA82EB92EF80167
:102120002281822F90E08F719070229526952770E2
:10213000892B19F0622F6F5F01C0622F832F942FBC
:102140009C01490166247724462E5524FCE82F2E55
:1021500077C0FDB63EB6F1E04F16510419F0E1E24A
:10216000EE2E06C0ED81FE81E080E194F1E2EF0EFB
:102170008E2D90E06C010894C108D1082DB73EB7B0
:10218000281B390B0FB6F8943EBF0FBE2DBF0DB7FD
:102190001EB70F5F1F4F8E2D0E94420F882309F03C
:1021A0003EC088EB94E0B8014E2D50E00E944818E4
:1021B000B8014E2D4150F80130E00DC0208198E06B
:1021C000822F8327369580FD3225915011F0269578
:1021D000F7CF31964150442389F70C0D1D1DF801AE
:1021E00080813817E1F4C401A6010E94D40188EB74
:1021F00094E06DE171E043E050E00E94F2178F2D12
:10220000932D9C010FB6F8943EBF0FBE2DBF0894CE
:10221000611C711C20E230E0820E931E11C088EB1D
:1022200094E060E271E043E050E00E94F2178F2DED
:10223000932D9C010FB6F8943EBF0FBE2DBF7CC0FE
:10224000641475040CF485CFF5018081918190931D
:10225000FF028093FE02C5010E943A156CC0809176
:1022600017018823A1F4F801608171818281938133
:102270006E5F7F4F8F4F9F4F0E940D0588EB94E05C
:102280006DE171E043E050E00E94F21757C0809189
:102290001801882391F488EB94E06DE171E043E04C
:1022A00050E00E94F2170E943A0569837A838B837B
:1022B0009C83CE01019664E02DC080911601882395
:1022C000D1F1809119018823B1F180911A018823FD
:1022D00091F4AEE1B4E0F801329688E001900D92FD
:1022E0008150E1F788EB94E06DE171E043E050E06C
:1022F0000E94F21720C080911B01882391F488EB83
:1023000094E06DE171E043E050E00E94F2178EE14D
:1023100094E068E00E94F20E0E94650F882361F449
:102320000DC088EB94E060E271E043E050E00E9471
:10233000F21781E004C003C082E001C080E02F8179
:1023400038850FB6F8943EBF0FBE2DBF28960FB646
:10235000F894DEBF0FBECDBFCF91DF911F910F91DB
:10236000FF90EF90DF90CF90BF90AF909F908F90B5
:102370007F906F905F904F903F902F9008958F9235
:102380009F92BF92CF92DF92EF92FF920F931F9393
:10239000DF93CF93CDB7DEB78DB69EB688EB94E0D2
:1023A0000E94E316892B09F454C08091C803882346
:1023B00049F481E08093C8030E94E6127093C5033C
:1023C0006093C40388EB94E00E94F416182F8150A8
:1023D000803108F046C00E94E6122091C40330917B
:1023E000C503621B730B685E7340D8F5A2E0BA2E7A
:1023F000B10E88EB94E00E94E316EB2CFF248E15BF
:102400009F0514F481E034C08DB79EB78E199F09E3
:102410000FB6F8949EBF0FBE8DBFCDB6DEB6089442
:10242000C11CD11C00E010E00AC088EB94E00E94BF
:102430001417F601E00FF11F80830F5F1F4F0E1579
:102440001F059CF3C6016B2D0E94A30F1092C803B9
:102450000FC01092C8031092C5031092C40380E00D
:1024600007C088EB94E00E9414171092C80383E021
:102470000FB6F8949EBE0FBE8DBECF91DF911F9117
:102480000F91FF90EF90DF90CF90BF909F908F9033
:1024900008958091260480FF02C00E94890C0E944A
:1024A000A3090E94F20B0E94BF110895EF920F93AF
:1024B000CF93DF93C8EAD1E006C0FE01849161E0CA
:1024C0000E940A142196F1E0C43BDF07B1F788EBC4
:1024D00094E040E950ED63E070E00E945C168DE00E
:1024E00061E00E940A148DE061E00E94491484EBCF
:1024F00091E064E370E041E021E030E000E0EE24B0
:10250000E3940E94520B0E94E30B0E9489098DEE16
:1025100092E00E94CD048DEE92E061E00E9497036C
:102520008DEE92E00E94AF03809126048360809339
:102530002604DF91CF910F91EF9008951F920F9293
:102540000FB60F9211242F933F938F939F93AF93C6
:10255000BF9380912B0490912C04A0912D04B091F5
:102560002E0430912F040196A11DB11D232F2D5F44
:102570002D3720F02D570196A11DB11D20932F045A
:1025800080932B0490932C04A0932D04B0932E04DD
:102590008091270490912804A0912904B0912A04E5
:1025A0000196A11DB11D8093270490932804A09348
:1025B0002904B0932A04BF91AF919F918F913F91CD
:1025C0002F910F900FBE0F901F9018958FB7F89412
:1025D00020912B0430912C0440912D0450912E0415
:1025E0008FBFB901CA0108959B01AC017FB7F89470
:1025F0008091270490912804A0912904B0912A0485
:1026000066B5A89B05C06F3F19F00196A11DB11DCD
:102610007FBFBA2FA92F982F8827860F911DA11D44
:10262000B11D62E0880F991FAA1FBB1F6A95D1F7E1
:10263000BC012DC0FFB7F894809127049091280425
:10264000A0912904B0912A04E6B5A89B05C0EF3FEC
:1026500019F00196A11DB11DFFBFBA2FA92F982F08
:1026600088278E0F911DA11DB11DE2E0880F991FD3
:10267000AA1FBB1FEA95D1F7861B970B885E934074
:10268000C8F2215030404040504068517C4F2115E5
:1026900031054105510571F60895789484B582603D
:1026A00084BD84B5816084BD85B5826085BD85B5F6
:1026B000816085BDEEE6F0E0808181608083E1E8A5
:1026C000F0E01082808182608083808181608083DD
:1026D000E0E8F0E0808181608083E1EBF0E08081E0
:1026E00084608083E0EBF0E0808181608083EAE7B2
:1026F000F0E080818460808380818260808380813B
:10270000816080838081806880831092C1000895F9
:10271000982F8E3008F09E509770809127018295F7
:10272000880F880F807C892B80937C0080917A00B1
:10273000806480937A0080917A0086FDFCCF20919E
:10274000780040917900942F80E030E0282B392BDD
:10275000C90108951F93CF93DF93182FEB0161E018
:102760000E940A14209709F44AC0CF3FD10509F40A
:1027700049C0E12FF0E0E25DFD4F84918330C1F06C
:10278000843028F4813051F08230B1F50CC08630AD
:1027900019F1873049F1843079F514C084B5806827
:1027A00084BDC7BD33C084B5806284BDC8BD2EC0A2
:1027B00080918000806880938000D0938900C093CE
:1027C000880024C080918000806280938000D09334
:1027D0008B00C0938A001AC08091B00080688093FB
:1027E000B000C093B30012C08091B00080628093AB
:1027F000B000C093B4000AC0C038D1051CF4812FCA
:1028000060E002C0812F61E00E944914DF91CF9106
:102810001F910895CF93DF93482F50E0CA01865E41
:102820009D4FFC0134914A5F5D4FFA0184918823EA
:1028300069F190E0880F991FFC01E851FE4FA591C6
:10284000B491FC01EE50FE4FC591D491662351F432
:102850002FB7F8948C91932F909589238C9388812E
:1028600089230BC0623061F42FB7F8948C91932FB9
:10287000909589238C938881832B88832FBF06C0F2
:102880009FB7F8948C91832B8C939FBFDF91CF914E
:102890000895482F50E0CA01825D9D4FFC012491AC
:1028A000CA01865E9D4FFC0194914A5F5D4FFA011B
:1028B0003491332309F440C0222351F1233071F0C5
:1028C000243028F42130A1F0223011F514C0263034
:1028D000B1F02730C1F02430D9F404C080918000D9
:1028E0008F7703C0809180008F7D8093800010C01F
:1028F00084B58F7702C084B58F7D84BD09C0809177
:10290000B0008F7703C08091B0008F7D8093B000BE
:10291000E32FF0E0EE0FFF1FEE50FE4FA591B491B4
:102920002FB7F894662321F48C919095892302C0E7
:102930008C91892B8C932FBF08950F931F93CF9366
:10294000DF93BC018230910510F462E070E0E09109
:10295000DC04F091DD0440E050E0A0E0B0E024C0F1
:102960008081918186179707D0F08617970771F4B9
:1029700082819381109729F013969C938E931297DE
:102980002CC09093DD048093DC0427C041155105D1
:1029900019F08417950718F48D01AC01EF01DF01E0
:1029A000828193819C01F9013097D1F6411551053F
:1029B000F9F0CA01861B970B8430910580F48A8157
:1029C0009B810115110521F0F8019383828304C0D6
:1029D0009093DD048093DC04FE01329645C0FE0135
:1029E000E80FF91F619371930297998388833CC024
:1029F0008091DA049091DB04892B41F480912A01C3
:102A000090912B019093DB048093DA0440912C0188
:102A100050912D014115510541F44DB75EB780919C
:102A2000280190912901481B590B2091DA0430911B
:102A3000DB0424173507B0F4CA01821B930B8617F9
:102A4000970780F0AB014E5F5F4F8417950750F0FA
:102A5000420F531F5093DB044093DA04F901619352
:102A6000719302C0E0E0F0E0CF01DF91CF911F91C0
:102A70000F910895CF93DF939C01009709F48FC0C5
:102A8000EC0122971B821A826091DC047091DD04B4
:102A90006115710581F488819981820F931F2091BE
:102AA000DA043091DB042817390739F5D093DB04B9
:102AB000C093DA0474C0DB0140E050E0AC17BD07FE
:102AC00008F1BB83AA83FE0121913191E20FF31F2C
:102AD000AE17BF0779F48D919C911197280F391F7C
:102AE0002E5F3F4F3983288312968D919C911397C7
:102AF0009B838A834115510571F4D093DD04C09303
:102B0000DC044DC012968D919C911397AD010097F6
:102B100011F0DC01D3CFDA011396DC93CE93129738
:102B2000FA0121913191E20FF31FCE17DF0769F40B
:102B300088819981280F391F2E5F3F4FFA01318319
:102B400020838A819B8193838283E0E0F0E0DB0134
:102B500012968D919C911397009719F0BC01FD017D
:102B6000F6CFAB014E5F5F4FDB018D919C91840FDF
:102B7000951F2091DA043091DB042817390779F486
:102B8000309729F41092DD041092DC0402C0138205
:102B90001282425050405093DB044093DA04DF919C
:102BA000CF91089508951F920F920FB60F9211249E
:102BB0002F933F934F938F939F93EF93FF93809126
:102BC000C00082FD1DC04091C6002091700430916C
:102BD00071042F5F3F4F2F7330708091720490917A
:102BE00073042817390771F0E0917004F0917104B3
:102BF000E05DFB4F4083309371042093700402C06A
:102C00008091C600FF91EF919F918F914F913F91DD
:102C10002F910F900FBE0F901F901895E091C40454
:102C2000F091C504E05CFF4F819191912081318149
:102C3000821B930B8F739070892B11F00E94D21519
:102C400008951F920F920FB60F9211242F933F9366
:102C50008F939F93EF93FF932091B4043091B50429
:102C60008091B6049091B7042817390731F4809108
:102C7000C1008F7D8093C10014C0E091B604F09133
:102C8000B704EC58FB4F20818091B6049091B704B3
:102C900001968F7390709093B7048093B60420933D
:102CA000C600FF91EF919F918F913F912F910F90CF
:102CB0000FBE0F901F901895AF92BF92DF92EF92C8
:102CC000FF920F931F93CF93DF93EC017A018B0157
:102CD000DD24403081EE580780E0680780E0780707
:102CE00011F0DD24D39491E0A92EB12CEC89FD895B
:102CF000DD2069F0C50108A002C0880F991F0A9461
:102D0000E2F7808360E079E08DE390E005C0108217
:102D100060E874E88EE190E0A80197010E94B51880
:102D20002150304040405040569547953795279563
:102D300080E12030380720F0DD2011F0DD24D6CFEF
:102D4000E889F9893083EA89FB89208319A2EE8911
:102D5000FF89408121E030E0C9010C8C02C0880F5E
:102D6000991F0A94E2F7482B4083EE89FF8940813E
:102D7000C9010D8C02C0880F991F0A94E2F7482BF5
:102D80004083EE89FF894081C9010E8C02C0880F03
:102D9000991F0A94E2F7482B4083EE89FF898081CE
:102DA0000F8C02C0220F331F0A94E2F720952823CC
:102DB0002083DF91CF911F910F91FF90EF90DF90D3
:102DC000BF90AF900895DC011C96ED91FC911D978A
:102DD000E05CFF4F2191319180819181281B390B5B
:102DE0002F733070C9010895DC011C96ED91FC91A0
:102DF0001D97E05CFF4F20813181E054F040DF01FE
:102E0000AE5BBF4F8D919C9111972817390719F42C
:102E10002FEF3FEF07C08D919C91E80FF91F808144
:102E2000282F30E0C9010895DC011C96ED91FC913A
:102E30001D97E05CFF4F20813181E054F040DF01BD
:102E4000AE5BBF4F8D919C9111972817390719F4EC
:102E50002FEF3FEF10C08D919C911197E80FF91F54
:102E600020818D919C91119701968F73907011968E
:102E70009C938E9330E0C9010895DC0191968C916A
:102E80009197882339F05496ED91FC915597808164
:102E900086FFF9CF91961C920895CF93DF93EC01B2
:102EA000EE85FF85E05CFF4F20813181E054F040EA
:102EB0002F5F3F4F2F733070DF01AE5BBF4F8D919F
:102EC0009C91119728173907D1F3E05CFF4F80815F
:102ED0009181E054F040E80FF91F6083EE85FF8593
:102EE000E05CFF4F31832083EE89FF89208181E000
:102EF00090E00F8C02C0880F991F0A94E2F7282BEC
:102F0000208381E089A3EC89FD89808180648083AE
:102F100081E090E0DF91CF9108951092BB04109270
:102F2000BA0488EE93E0A0E0B0E08093BC049093F4
:102F3000BD04A093BE04B093BF0488E491E09093D5
:102F4000B9048093B80480E394E09093C50480931F
:102F5000C40484E794E09093C7048093C60485EC8E
:102F600090E09093C9048093C80484EC90E090931F
:102F7000CB048093CA0480EC90E09093CD048093BE
:102F8000CC0481EC90E09093CF048093CE0482EC4B
:102F900090E09093D1048093D00486EC90E09093DD
:102FA000D3048093D20484E08093D40483E080939C
:102FB000D50487E08093D60485E08093D70481E030
:102FC0008093D8040895CF93DF930E944D130E94FD
:102FD0005612CEE0D6E10E9449122097E1F30E94FA
:102FE0000E16F9CFCF92DF92EF92FF920F931F93BD
:102FF000CF93DF937C016B018A01C0E0D0E00FC06A
:10300000D6016D916D01D701ED91FC910190F08198
:10301000E02DC7010995C80FD91F015010400115B7
:10302000110571F7CE01DF91CF911F910F91FF90A4
:10303000EF90DF90CF900895CF93DF93EC010E9443
:10304000E612688779878A879B87E881F9810680FD
:10305000F781E02DCE0109959C0197FF15C00E94D4
:10306000E612288539854A855B85621B730B840BC4
:10307000950B2C813D814E815F8162177307840718
:10308000950718F32FEF3FEFC901DF91CF91089516
:10309000CF92DF92EF92FF920F931F93CF93DF9324
:1030A0006C018B017A01C0E0D0E009C0C6010E942A
:1030B0001C1897FD07C0F80181938F012196CE154A
:1030C000DF05A0F3CE01DF91CF911F910F91FF900B
:1030D000EF90DF90CF900895EF92FF920F931F93A0
:1030E0007B018C01611571058105910529F420E0B2
:1030F00030E040E050E00BC00E94BD01A801970104
:103100000E94D718AC01CB01DA019C01AD01B901D5
:10311000CA011F910F91FF90EF900895009729F039
:10312000BC0180E090E00E94C2010895629FD0013E
:10313000739FF001829FE00DF11D649FE00DF11D72
:10314000929FF00D839FF00D749FF00D659FF00D21
:103150009927729FB00DE11DF91F639FB00DE11D0E
:10316000F91FBD01CF0111240895A1E21A2EAA1B57
:10317000BB1BFD010DC0AA1FBB1FEE1FFF1FA21727
:10318000B307E407F50720F0A21BB30BE40BF50B24
:10319000661F771F881F991F1A9469F760957095AD
:1031A000809590959B01AC01BD01CF01089597FBDF
:1031B000092E05260ED057FD04D0D7DF0AD0001CFB
:1031C00038F450954095309521953F4F4F4F5F4FC4
:1031D0000895F6F790958095709561957F4F8F4F84
:1031E0009F4F0895EE0FFF1F0590F491E02D099475
:1031F0002F923F924F925F926F927F928F929F9207
:10320000AF92BF92CF92DF92EF92FF920F931F93F4
:10321000CF93DF93CDB7DEB7CA1BDB0B0FB6F894A5
:10322000DEBF0FBECDBF09942A88398848885F84E5
:103230006E847D848C849B84AA84B984C884DF8056
:10324000EE80FD800C811B81AA81B981CE0FD11D3A
:103250000FB6F894DEBF0FBECDBFED010895F89410
:02326000FFCF9E
:10326200010000000000FF00FF002C010000A00F81
:1032720002030405060708090A0B0C0D0F01019A47
:103282000100C4FEFFFFFF018000DE040000000019
:1032920000004B061A06D305DC05F1050206FFFF06
:1032A200FFFFFFFF000000004D17F217E31614178F
:0432B200F4163D17BA
:00000001FF
